{
  "contractName": "escrowSystem",
  "abi": [
    {
      "inputs": [],
      "payable": false,
      "stateMutability": "nonpayable",
      "type": "constructor"
    },
    {
      "anonymous": false,
      "inputs": [
        {
          "indexed": false,
          "internalType": "uint256",
          "name": "logAmounts",
          "type": "uint256"
        }
      ],
      "name": "amountLog",
      "type": "event"
    },
    {
      "anonymous": false,
      "inputs": [
        {
          "indexed": false,
          "internalType": "enum escrowSystem.status",
          "name": "logstate",
          "type": "uint8"
        }
      ],
      "name": "logState",
      "type": "event"
    },
    {
      "payable": true,
      "stateMutability": "payable",
      "type": "fallback"
    },
    {
      "constant": true,
      "inputs": [
        {
          "internalType": "uint256",
          "name": "",
          "type": "uint256"
        }
      ],
      "name": "contractsDetails",
      "outputs": [
        {
          "internalType": "address payable",
          "name": "employer",
          "type": "address"
        },
        {
          "internalType": "address payable",
          "name": "worker",
          "type": "address"
        },
        {
          "internalType": "address",
          "name": "judge",
          "type": "address"
        },
        {
          "internalType": "uint256",
          "name": "price",
          "type": "uint256"
        },
        {
          "internalType": "uint256",
          "name": "deposit",
          "type": "uint256"
        },
        {
          "internalType": "enum escrowSystem.status",
          "name": "state",
          "type": "uint8"
        }
      ],
      "payable": false,
      "stateMutability": "view",
      "type": "function"
    },
    {
      "constant": true,
      "inputs": [],
      "name": "owner",
      "outputs": [
        {
          "internalType": "address",
          "name": "",
          "type": "address"
        }
      ],
      "payable": false,
      "stateMutability": "view",
      "type": "function"
    },
    {
      "constant": false,
      "inputs": [
        {
          "internalType": "address",
          "name": "judgeaddr",
          "type": "address"
        },
        {
          "internalType": "uint256",
          "name": "deposits",
          "type": "uint256"
        }
      ],
      "name": "pay",
      "outputs": [
        {
          "internalType": "bool",
          "name": "",
          "type": "bool"
        }
      ],
      "payable": true,
      "stateMutability": "payable",
      "type": "function"
    },
    {
      "constant": false,
      "inputs": [
        {
          "internalType": "uint256",
          "name": "idContract",
          "type": "uint256"
        }
      ],
      "name": "Deposit",
      "outputs": [
        {
          "internalType": "bool",
          "name": "",
          "type": "bool"
        }
      ],
      "payable": true,
      "stateMutability": "payable",
      "type": "function"
    },
    {
      "constant": false,
      "inputs": [
        {
          "internalType": "uint256",
          "name": "idContract",
          "type": "uint256"
        },
        {
          "internalType": "bool",
          "name": "verify",
          "type": "bool"
        }
      ],
      "name": "confirm",
      "outputs": [
        {
          "internalType": "bool",
          "name": "",
          "type": "bool"
        }
      ],
      "payable": false,
      "stateMutability": "nonpayable",
      "type": "function"
    },
    {
      "constant": false,
      "inputs": [
        {
          "internalType": "bool",
          "name": "verify",
          "type": "bool"
        },
        {
          "internalType": "uint256",
          "name": "idContract",
          "type": "uint256"
        }
      ],
      "name": "judgment",
      "outputs": [
        {
          "internalType": "bool",
          "name": "",
          "type": "bool"
        }
      ],
      "payable": false,
      "stateMutability": "nonpayable",
      "type": "function"
    },
    {
      "constant": false,
      "inputs": [
        {
          "internalType": "uint256",
          "name": "idContract",
          "type": "uint256"
        }
      ],
      "name": "withdrawWorker",
      "outputs": [
        {
          "internalType": "bool",
          "name": "",
          "type": "bool"
        }
      ],
      "payable": false,
      "stateMutability": "nonpayable",
      "type": "function"
    },
    {
      "constant": false,
      "inputs": [
        {
          "internalType": "uint256",
          "name": "idContract",
          "type": "uint256"
        }
      ],
      "name": "withdrawEmployer",
      "outputs": [
        {
          "internalType": "bool",
          "name": "",
          "type": "bool"
        }
      ],
      "payable": true,
      "stateMutability": "payable",
      "type": "function"
    }
  ],
  "bytecode": "0x608060405234801561001057600080fd5b5033600260006101000a81548173ffffffffffffffffffffffffffffffffffffffff021916908373ffffffffffffffffffffffffffffffffffffffff160217905550611105806100616000396000f3fe60806040526004361061007b5760003560e01c8063ab435da21161004e578063ab435da2146101c2578063ae88df9d14610221578063c407687614610325578063fdd74a6e1461038b5761007b565b80632ab86334146100805780634d6ce1e5146100c65780638c55284a1461010c5780638da5cb5b1461016b575b600080fd5b6100ac6004803603602081101561009657600080fd5b81019080803590602001909291905050506103de565b604051808215151515815260200191505060405180910390f35b6100f2600480360360208110156100dc57600080fd5b81019080803590602001909291905050506105bc565b604051808215151515815260200191505060405180910390f35b34801561011857600080fd5b506101516004803603604081101561012f57600080fd5b810190808035906020019092919080351515906020019092919050505061071f565b604051808215151515815260200191505060405180910390f35b34801561017757600080fd5b50610180610930565b604051808273ffffffffffffffffffffffffffffffffffffffff1673ffffffffffffffffffffffffffffffffffffffff16815260200191505060405180910390f35b3480156101ce57600080fd5b50610207600480360360408110156101e557600080fd5b8101908080351515906020019092919080359060200190929190505050610956565b604051808215151515815260200191505060405180910390f35b34801561022d57600080fd5b5061025a6004803603602081101561024457600080fd5b8101908080359060200190929190505050610b67565b604051808773ffffffffffffffffffffffffffffffffffffffff1673ffffffffffffffffffffffffffffffffffffffff1681526020018673ffffffffffffffffffffffffffffffffffffffff1673ffffffffffffffffffffffffffffffffffffffff1681526020018573ffffffffffffffffffffffffffffffffffffffff1673ffffffffffffffffffffffffffffffffffffffff16815260200184815260200183815260200182600481111561030c57fe5b60ff168152602001965050505050505060405180910390f35b6103716004803603604081101561033b57600080fd5b81019080803573ffffffffffffffffffffffffffffffffffffffff16906020019092919080359060200190929190505050610c10565b604051808215151515815260200191505060405180910390f35b34801561039757600080fd5b506103c4600480360360208110156103ae57600080fd5b8101908080359060200190929190505050610e8a565b604051808215151515815260200191505060405180910390f35b600080600083815260200190815260200160002060000160009054906101000a900473ffffffffffffffffffffffffffffffffffffffff1673ffffffffffffffffffffffffffffffffffffffff163373ffffffffffffffffffffffffffffffffffffffff161461044d57600080fd5b60048081111561045957fe5b60008084815260200190815260200160002060050160009054906101000a900460ff16600481111561048757fe5b1461049157600080fd5b60008083815260200190815260200160002060000160009054906101000a900473ffffffffffffffffffffffffffffffffffffffff1673ffffffffffffffffffffffffffffffffffffffff166108fc600080858152602001908152602001600020600301549081150290604051600060405180830381858888f19350505050158015610521573d6000803e3d6000fd5b5060008083815260200190815260200160002060000160009054906101000a900473ffffffffffffffffffffffffffffffffffffffff1673ffffffffffffffffffffffffffffffffffffffff166108fc600080858152602001908152602001600020600401549081150290604051600060405180830381858888f193505050501580156105b2573d6000803e3d6000fd5b5060019050919050565b60008060008381526020019081526020016000206004015434146105df57600080fd5b600060048111156105ec57fe5b60008084815260200190815260200160002060050160009054906101000a900460ff16600481111561061a57fe5b1461062457600080fd5b3360008084815260200190815260200160002060010160006101000a81548173ffffffffffffffffffffffffffffffffffffffff021916908373ffffffffffffffffffffffffffffffffffffffff160217905550600160008084815260200190815260200160002060050160006101000a81548160ff021916908360048111156106aa57fe5b02179055507f4cdc775e8f8c926da2bcdf782261435be8080b36964c56de7753739c41a8b53460008084815260200190815260200160002060050160009054906101000a900460ff166040518082600481111561070357fe5b60ff16815260200191505060405180910390a160019050919050565b60003373ffffffffffffffffffffffffffffffffffffffff1660008085815260200190815260200160002060000160009054906101000a900473ffffffffffffffffffffffffffffffffffffffff1673ffffffffffffffffffffffffffffffffffffffff161461078e57600080fd5b6001600481111561079b57fe5b60008085815260200190815260200160002060050160009054906101000a900460ff1660048111156107c957fe5b146107d357600080fd5b60011515821515141561088757600360008085815260200190815260200160002060050160006101000a81548160ff0219169083600481111561081257fe5b02179055507f4cdc775e8f8c926da2bcdf782261435be8080b36964c56de7753739c41a8b53460008085815260200190815260200160002060050160009054906101000a900460ff166040518082600481111561086b57fe5b60ff16815260200191505060405180910390a16001905061092a565b600260008085815260200190815260200160002060050160006101000a81548160ff021916908360048111156108b957fe5b02179055507f4cdc775e8f8c926da2bcdf782261435be8080b36964c56de7753739c41a8b53460008085815260200190815260200160002060050160009054906101000a900460ff166040518082600481111561091257fe5b60ff16815260200191505060405180910390a1600190505b92915050565b600260009054906101000a900473ffffffffffffffffffffffffffffffffffffffff1681565b600080600083815260200190815260200160002060020160009054906101000a900473ffffffffffffffffffffffffffffffffffffffff1673ffffffffffffffffffffffffffffffffffffffff163373ffffffffffffffffffffffffffffffffffffffff16146109c557600080fd5b600260048111156109d257fe5b60008084815260200190815260200160002060050160009054906101000a900460ff166004811115610a0057fe5b14610a0a57600080fd5b600115158315151415610abe57600360008084815260200190815260200160002060050160006101000a81548160ff02191690836004811115610a4957fe5b02179055507f4cdc775e8f8c926da2bcdf782261435be8080b36964c56de7753739c41a8b53460008084815260200190815260200160002060050160009054906101000a900460ff1660405180826004811115610aa257fe5b60ff16815260200191505060405180910390a160019050610b61565b600460008084815260200190815260200160002060050160006101000a81548160ff02191690836004811115610af057fe5b02179055507f4cdc775e8f8c926da2bcdf782261435be8080b36964c56de7753739c41a8b53460008084815260200190815260200160002060050160009054906101000a900460ff1660405180826004811115610b4957fe5b60ff16815260200191505060405180910390a1600190505b92915050565b60006020528060005260406000206000915090508060000160009054906101000a900473ffffffffffffffffffffffffffffffffffffffff16908060010160009054906101000a900473ffffffffffffffffffffffffffffffffffffffff16908060020160009054906101000a900473ffffffffffffffffffffffffffffffffffffffff16908060030154908060040154908060050160009054906101000a900460ff16905086565b60006040518060c001604052803373ffffffffffffffffffffffffffffffffffffffff168152602001600073ffffffffffffffffffffffffffffffffffffffff1681526020018473ffffffffffffffffffffffffffffffffffffffff16815260200134815260200183815260200160006004811115610c8b57fe5b815250600080600154815260200190815260200160002060008201518160000160006101000a81548173ffffffffffffffffffffffffffffffffffffffff021916908373ffffffffffffffffffffffffffffffffffffffff16021790555060208201518160010160006101000a81548173ffffffffffffffffffffffffffffffffffffffff021916908373ffffffffffffffffffffffffffffffffffffffff16021790555060408201518160020160006101000a81548173ffffffffffffffffffffffffffffffffffffffff021916908373ffffffffffffffffffffffffffffffffffffffff160217905550606082015181600301556080820151816004015560a08201518160050160006101000a81548160ff02191690836004811115610daf57fe5b02179055509050507f4cdc775e8f8c926da2bcdf782261435be8080b36964c56de7753739c41a8b534600080600154815260200190815260200160002060050160009054906101000a900460ff1660405180826004811115610e0d57fe5b60ff16815260200191505060405180910390a17f3703cab3b6d2e2011ab9722e0f19ba68f93b3c0bca41c07114880f79c98659126000806001548152602001908152602001600020600301546040518082815260200191505060405180910390a16001600081548092919060010191905055506001905092915050565b600080600083815260200190815260200160002060010160009054906101000a900473ffffffffffffffffffffffffffffffffffffffff1673ffffffffffffffffffffffffffffffffffffffff163373ffffffffffffffffffffffffffffffffffffffff1614610ef957600080fd5b60036004811115610f0657fe5b60008084815260200190815260200160002060050160009054906101000a900460ff166004811115610f3457fe5b14610f3e57600080fd5b7f4cdc775e8f8c926da2bcdf782261435be8080b36964c56de7753739c41a8b53460008084815260200190815260200160002060050160009054906101000a900460ff1660405180826004811115610f9257fe5b60ff16815260200191505060405180910390a160008083815260200190815260200160002060010160009054906101000a900473ffffffffffffffffffffffffffffffffffffffff1673ffffffffffffffffffffffffffffffffffffffff166108fc600080858152602001908152602001600020600401549081150290604051600060405180830381858888f19350505050158015611035573d6000803e3d6000fd5b5060008083815260200190815260200160002060010160009054906101000a900473ffffffffffffffffffffffffffffffffffffffff1673ffffffffffffffffffffffffffffffffffffffff166108fc600080858152602001908152602001600020600301549081150290604051600060405180830381858888f193505050501580156110c6573d6000803e3d6000fd5b506001905091905056fea265627a7a72315820ae176d1c8e3bffd7a7970fc53c4946644c24f5b2baa38ab9461698edc1d3452964736f6c63430005110032",
  "source": "pragma solidity 0.5.17;\r\n\r\n// @title Contract for between two people as escrow\r\n// @author noorullah karimi\r\n// @notice Allows to users make contract with third party for judgement about result\r\ncontract escrowSystem {\r\n    //start the variable\r\n    //@notice list of contracts with details\r\n    //@dev mapping save data of contract and can call with id contract\r\n    mapping(uint256 => details) public contractsDetails;\r\n\r\n    //@notice enum for the status\r\n    //@dev is is define the state of every contract in every function\r\n    enum status {\r\n        notStarted,\r\n        started,\r\n        inWait,\r\n        done,\r\n        failed\r\n    }\r\n\r\n    //@notice Fallback function - Called if other functions don't match call or\r\n    //@dev sent ether without data\r\n    // Typically, called when invalid data is sent\r\n    // Added so ether sent to this contract is reverted if the contract fails\r\n    // otherwise, the sender's money is transferred to contract\r\n    function() external payable {\r\n        revert();\r\n    }\r\n\r\n    //@notice the struct variable for details\r\n    //@dev contains employer/worker/judgement/price/deposit(for lose or destry)\r\n    struct details {\r\n        address payable employer;\r\n        address payable worker;\r\n        address judge;\r\n        uint256 price;\r\n        uint256 deposit;\r\n        status state;\r\n    }\r\n    //@notice for how many contract created\r\n    uint256 numberContract;\r\n\r\n    //@notice for the who deployed this contract\r\n    address public owner;\r\n\r\n    //@notice initial the owner\r\n    constructor() public {\r\n        //initialize the owner\r\n        owner = msg.sender;\r\n    }\r\n\r\n    //@notice events\r\n    //@dev this event get some data and log on\r\n    //@param what level is the contract\r\n    event logState(status logstate);\r\n    //@param amoutes of money\r\n    event amountLog(uint256 logAmounts);\r\n\r\n    //@notice function response of the create contract\r\n    //@dev this fucntion get some param and make the contract with this param\r\n    //@param address's wallet of judgement as first param\r\n    //@param dpo money for when lose project or destroy contract/work ,it's getting with employer\r\n    //@return the true will returned to user to find out the function is work\r\n    function pay(address judgeaddr, uint256 deposits)\r\n        public\r\n        payable\r\n        returns (bool)\r\n    {\r\n        contractsDetails[numberContract] = details({\r\n            employer: msg.sender,\r\n            worker: address(0),\r\n            judge: judgeaddr,\r\n            price: msg.value,\r\n            deposit: deposits,\r\n            state: status.notStarted\r\n        });\r\n        emit logState(contractsDetails[numberContract].state);\r\n        emit amountLog(contractsDetails[numberContract].price);\r\n\r\n        numberContract++;\r\n\r\n        return true;\r\n    }\r\n\r\n    //@notice the function for worker\r\n    //@dev should worker call this function\r\n    //@dev should send money if worker loss the work pay for damage contract\r\n    //@dev should money given by employer\r\n    //@return the true will sended to user if every thing done\r\n    function Deposit(uint256 idContract) public payable returns (bool) {\r\n        require(msg.value == contractsDetails[idContract].deposit);\r\n        require(contractsDetails[idContract].state == status.notStarted);\r\n\r\n        contractsDetails[idContract].worker = msg.sender;\r\n        contractsDetails[idContract].state = status.started;\r\n\r\n        emit logState(contractsDetails[idContract].state);\r\n        return true;\r\n    }\r\n\r\n    //@notice this employer will choose the work is done or not\r\n    //@dev should employer can call it\r\n    //@dev should status be started\r\n    //@return return true if function work fine\r\n    function confirm(uint256 idContract, bool verify) public returns (bool) {\r\n        require(contractsDetails[idContract].employer == msg.sender);\r\n        require(contractsDetails[idContract].state == status.started);\r\n\r\n        if (verify == true) {\r\n            contractsDetails[idContract].state = status.done;\r\n            emit logState(contractsDetails[idContract].state);\r\n            return true;\r\n        } else {\r\n            contractsDetails[idContract].state = status.inWait;\r\n            emit logState(contractsDetails[idContract].state);\r\n            return true;\r\n        }\r\n    }\r\n\r\n    //@notice this judgement will choose the work is done or not after reject employer\r\n    //@dev should judgement can call it\r\n    //@dev should status be inwait\r\n    //@return return true if function work fine\r\n    function judgment(bool verify, uint256 idContract) public returns (bool) {\r\n        require(msg.sender == contractsDetails[idContract].judge);\r\n        require(contractsDetails[idContract].state == status.inWait);\r\n\r\n        if (verify == true) {\r\n            contractsDetails[idContract].state = status.done;\r\n            emit logState(contractsDetails[idContract].state);\r\n            return true;\r\n        } else {\r\n            contractsDetails[idContract].state = status.failed;\r\n            emit logState(contractsDetails[idContract].state);\r\n            return true;\r\n        }\r\n    }\r\n\r\n    //@notice this transfer money to worker\r\n    //@dev should worker can call it\r\n    //@dev should status be done\r\n    //@return return true if function work fine\r\n    function withdrawWorker(uint256 idContract) public returns (bool) {\r\n        require(msg.sender == contractsDetails[idContract].worker);\r\n        require(contractsDetails[idContract].state == status.done);\r\n\r\n        emit logState(contractsDetails[idContract].state);\r\n\r\n        contractsDetails[idContract].worker.transfer(\r\n            contractsDetails[idContract].deposit\r\n        );\r\n        contractsDetails[idContract].worker.transfer(\r\n            contractsDetails[idContract].price\r\n        );\r\n        return true;\r\n    }\r\n\r\n    //@notice this transfer money to employer\r\n    //@dev require employer can call it\r\n    //@dev require status be done\r\n    //@return return true if function work fine\r\n    function withdrawEmployer(uint256 idContract)\r\n        public\r\n        payable\r\n        returns (bool)\r\n    {\r\n        require(msg.sender == contractsDetails[idContract].employer);\r\n        require(contractsDetails[idContract].state == status.failed);\r\n\r\n        contractsDetails[idContract].employer.transfer(\r\n            contractsDetails[idContract].price\r\n        );\r\n        contractsDetails[idContract].employer.transfer(\r\n            contractsDetails[idContract].deposit\r\n        );\r\n        return true;\r\n    }\r\n}\r\n",
  "sourcePath": "E:\\vscode\\new project\\blockchain\\final-project-dapp-2\\contracts\\escrowSys.sol",
  "compiler": {
    "name": "solc",
    "version": "0.5.17+commit.d19bba13.Emscripten.clang"
  },
  "schemaVersion": "3.4.3",
  "updatedAt": "2021-12-20T17:13:04.280Z",
  "networkType": "ethereum",
  "devdoc": {
    "methods": {}
  },
  "userdoc": {
    "methods": {}
  }
}