{
  "contractName": "escrowSystem",
  "abi": [
    {
      "inputs": [],
      "payable": false,
      "stateMutability": "nonpayable",
      "type": "constructor"
    },
    {
      "anonymous": false,
      "inputs": [
        {
          "indexed": false,
          "internalType": "uint256",
          "name": "logAmounts",
          "type": "uint256"
        }
      ],
      "name": "amountLog",
      "type": "event"
    },
    {
      "anonymous": false,
      "inputs": [
        {
          "indexed": false,
          "internalType": "enum escrowSystem.status",
          "name": "logstate",
          "type": "uint8"
        }
      ],
      "name": "logState",
      "type": "event"
    },
    {
      "constant": true,
      "inputs": [
        {
          "internalType": "uint256",
          "name": "",
          "type": "uint256"
        }
      ],
      "name": "contractsDetails",
      "outputs": [
        {
          "internalType": "address payable",
          "name": "employer",
          "type": "address"
        },
        {
          "internalType": "address payable",
          "name": "worker",
          "type": "address"
        },
        {
          "internalType": "address",
          "name": "judge",
          "type": "address"
        },
        {
          "internalType": "uint256",
          "name": "price",
          "type": "uint256"
        },
        {
          "internalType": "uint256",
          "name": "deposit",
          "type": "uint256"
        },
        {
          "internalType": "enum escrowSystem.status",
          "name": "state",
          "type": "uint8"
        }
      ],
      "payable": false,
      "stateMutability": "view",
      "type": "function"
    },
    {
      "constant": true,
      "inputs": [],
      "name": "owner",
      "outputs": [
        {
          "internalType": "address",
          "name": "",
          "type": "address"
        }
      ],
      "payable": false,
      "stateMutability": "view",
      "type": "function"
    },
    {
      "constant": false,
      "inputs": [
        {
          "internalType": "address",
          "name": "judgeaddr",
          "type": "address"
        },
        {
          "internalType": "uint256",
          "name": "deposits",
          "type": "uint256"
        }
      ],
      "name": "pay",
      "outputs": [
        {
          "internalType": "bool",
          "name": "",
          "type": "bool"
        }
      ],
      "payable": true,
      "stateMutability": "payable",
      "type": "function"
    },
    {
      "constant": false,
      "inputs": [
        {
          "internalType": "uint256",
          "name": "idContract",
          "type": "uint256"
        }
      ],
      "name": "Deposit",
      "outputs": [
        {
          "internalType": "bool",
          "name": "",
          "type": "bool"
        }
      ],
      "payable": true,
      "stateMutability": "payable",
      "type": "function"
    },
    {
      "constant": false,
      "inputs": [
        {
          "internalType": "uint256",
          "name": "idContract",
          "type": "uint256"
        },
        {
          "internalType": "bool",
          "name": "verify",
          "type": "bool"
        }
      ],
      "name": "confirm",
      "outputs": [
        {
          "internalType": "bool",
          "name": "",
          "type": "bool"
        }
      ],
      "payable": false,
      "stateMutability": "nonpayable",
      "type": "function"
    },
    {
      "constant": false,
      "inputs": [
        {
          "internalType": "bool",
          "name": "verify",
          "type": "bool"
        },
        {
          "internalType": "uint256",
          "name": "idContract",
          "type": "uint256"
        }
      ],
      "name": "judgment",
      "outputs": [
        {
          "internalType": "bool",
          "name": "",
          "type": "bool"
        }
      ],
      "payable": false,
      "stateMutability": "nonpayable",
      "type": "function"
    },
    {
      "constant": false,
      "inputs": [
        {
          "internalType": "uint256",
          "name": "idContract",
          "type": "uint256"
        }
      ],
      "name": "withdrawWorker",
      "outputs": [
        {
          "internalType": "bool",
          "name": "",
          "type": "bool"
        }
      ],
      "payable": false,
      "stateMutability": "nonpayable",
      "type": "function"
    },
    {
      "constant": false,
      "inputs": [
        {
          "internalType": "uint256",
          "name": "idContract",
          "type": "uint256"
        }
      ],
      "name": "withdrawEmployer",
      "outputs": [
        {
          "internalType": "bool",
          "name": "",
          "type": "bool"
        }
      ],
      "payable": true,
      "stateMutability": "payable",
      "type": "function"
    }
  ],
  "bytecode": "0x608060405234801561001057600080fd5b5033600260006101000a81548173ffffffffffffffffffffffffffffffffffffffff021916908373ffffffffffffffffffffffffffffffffffffffff1602179055506110c1806100616000396000f3fe60806040526004361061007b5760003560e01c8063ab435da21161004e578063ab435da2146101c2578063ae88df9d14610221578063c407687614610325578063fdd74a6e1461038b5761007b565b80632ab86334146100805780634d6ce1e5146100c65780638c55284a1461010c5780638da5cb5b1461016b575b600080fd5b6100ac6004803603602081101561009657600080fd5b81019080803590602001909291905050506103de565b604051808215151515815260200191505060405180910390f35b6100f2600480360360208110156100dc57600080fd5b81019080803590602001909291905050506105bc565b604051808215151515815260200191505060405180910390f35b34801561011857600080fd5b506101516004803603604081101561012f57600080fd5b8101908080359060200190929190803515159060200190929190505050610720565b604051808215151515815260200191505060405180910390f35b34801561017757600080fd5b50610180610931565b604051808273ffffffffffffffffffffffffffffffffffffffff1673ffffffffffffffffffffffffffffffffffffffff16815260200191505060405180910390f35b3480156101ce57600080fd5b50610207600480360360408110156101e557600080fd5b8101908080351515906020019092919080359060200190929190505050610957565b604051808215151515815260200191505060405180910390f35b34801561022d57600080fd5b5061025a6004803603602081101561024457600080fd5b8101908080359060200190929190505050610b23565b604051808773ffffffffffffffffffffffffffffffffffffffff1673ffffffffffffffffffffffffffffffffffffffff1681526020018673ffffffffffffffffffffffffffffffffffffffff1673ffffffffffffffffffffffffffffffffffffffff1681526020018573ffffffffffffffffffffffffffffffffffffffff1673ffffffffffffffffffffffffffffffffffffffff16815260200184815260200183815260200182600481111561030c57fe5b60ff168152602001965050505050505060405180910390f35b6103716004803603604081101561033b57600080fd5b81019080803573ffffffffffffffffffffffffffffffffffffffff16906020019092919080359060200190929190505050610bcc565b604051808215151515815260200191505060405180910390f35b34801561039757600080fd5b506103c4600480360360208110156103ae57600080fd5b8101908080359060200190929190505050610e46565b604051808215151515815260200191505060405180910390f35b600080600083815260200190815260200160002060000160009054906101000a900473ffffffffffffffffffffffffffffffffffffffff1673ffffffffffffffffffffffffffffffffffffffff163373ffffffffffffffffffffffffffffffffffffffff161461044d57600080fd5b60048081111561045957fe5b60008084815260200190815260200160002060050160009054906101000a900460ff16600481111561048757fe5b1461049157600080fd5b60008083815260200190815260200160002060000160009054906101000a900473ffffffffffffffffffffffffffffffffffffffff1673ffffffffffffffffffffffffffffffffffffffff166108fc600080858152602001908152602001600020600301549081150290604051600060405180830381858888f19350505050158015610521573d6000803e3d6000fd5b5060008083815260200190815260200160002060000160009054906101000a900473ffffffffffffffffffffffffffffffffffffffff1673ffffffffffffffffffffffffffffffffffffffff166108fc600080858152602001908152602001600020600401549081150290604051600060405180830381858888f193505050501580156105b2573d6000803e3d6000fd5b5060019050919050565b6000806000838152602001908152602001600020600401543410156105e057600080fd5b600060048111156105ed57fe5b60008084815260200190815260200160002060050160009054906101000a900460ff16600481111561061b57fe5b1461062557600080fd5b3360008084815260200190815260200160002060010160006101000a81548173ffffffffffffffffffffffffffffffffffffffff021916908373ffffffffffffffffffffffffffffffffffffffff160217905550600160008084815260200190815260200160002060050160006101000a81548160ff021916908360048111156106ab57fe5b02179055507f4cdc775e8f8c926da2bcdf782261435be8080b36964c56de7753739c41a8b53460008084815260200190815260200160002060050160009054906101000a900460ff166040518082600481111561070457fe5b60ff16815260200191505060405180910390a160019050919050565b60003373ffffffffffffffffffffffffffffffffffffffff1660008085815260200190815260200160002060000160009054906101000a900473ffffffffffffffffffffffffffffffffffffffff1673ffffffffffffffffffffffffffffffffffffffff161461078f57600080fd5b6001600481111561079c57fe5b60008085815260200190815260200160002060050160009054906101000a900460ff1660048111156107ca57fe5b146107d457600080fd5b60011515821515141561088857600360008085815260200190815260200160002060050160006101000a81548160ff0219169083600481111561081357fe5b02179055507f4cdc775e8f8c926da2bcdf782261435be8080b36964c56de7753739c41a8b53460008085815260200190815260200160002060050160009054906101000a900460ff166040518082600481111561086c57fe5b60ff16815260200191505060405180910390a16001905061092b565b600260008085815260200190815260200160002060050160006101000a81548160ff021916908360048111156108ba57fe5b02179055507f4cdc775e8f8c926da2bcdf782261435be8080b36964c56de7753739c41a8b53460008085815260200190815260200160002060050160009054906101000a900460ff166040518082600481111561091357fe5b60ff16815260200191505060405180910390a1600090505b92915050565b600260009054906101000a900473ffffffffffffffffffffffffffffffffffffffff1681565b600080600083815260200190815260200160002060020160009054906101000a900473ffffffffffffffffffffffffffffffffffffffff1673ffffffffffffffffffffffffffffffffffffffff163373ffffffffffffffffffffffffffffffffffffffff16146109c657600080fd5b600115158315151415610a7a57600360008084815260200190815260200160002060050160006101000a81548160ff02191690836004811115610a0557fe5b02179055507f4cdc775e8f8c926da2bcdf782261435be8080b36964c56de7753739c41a8b53460008084815260200190815260200160002060050160009054906101000a900460ff1660405180826004811115610a5e57fe5b60ff16815260200191505060405180910390a160019050610b1d565b600460008084815260200190815260200160002060050160006101000a81548160ff02191690836004811115610aac57fe5b02179055507f4cdc775e8f8c926da2bcdf782261435be8080b36964c56de7753739c41a8b53460008084815260200190815260200160002060050160009054906101000a900460ff1660405180826004811115610b0557fe5b60ff16815260200191505060405180910390a1600090505b92915050565b60006020528060005260406000206000915090508060000160009054906101000a900473ffffffffffffffffffffffffffffffffffffffff16908060010160009054906101000a900473ffffffffffffffffffffffffffffffffffffffff16908060020160009054906101000a900473ffffffffffffffffffffffffffffffffffffffff16908060030154908060040154908060050160009054906101000a900460ff16905086565b60006040518060c001604052803373ffffffffffffffffffffffffffffffffffffffff168152602001600073ffffffffffffffffffffffffffffffffffffffff1681526020018473ffffffffffffffffffffffffffffffffffffffff16815260200134815260200183815260200160006004811115610c4757fe5b815250600080600154815260200190815260200160002060008201518160000160006101000a81548173ffffffffffffffffffffffffffffffffffffffff021916908373ffffffffffffffffffffffffffffffffffffffff16021790555060208201518160010160006101000a81548173ffffffffffffffffffffffffffffffffffffffff021916908373ffffffffffffffffffffffffffffffffffffffff16021790555060408201518160020160006101000a81548173ffffffffffffffffffffffffffffffffffffffff021916908373ffffffffffffffffffffffffffffffffffffffff160217905550606082015181600301556080820151816004015560a08201518160050160006101000a81548160ff02191690836004811115610d6b57fe5b02179055509050507f4cdc775e8f8c926da2bcdf782261435be8080b36964c56de7753739c41a8b534600080600154815260200190815260200160002060050160009054906101000a900460ff1660405180826004811115610dc957fe5b60ff16815260200191505060405180910390a17f3703cab3b6d2e2011ab9722e0f19ba68f93b3c0bca41c07114880f79c98659126000806001548152602001908152602001600020600301546040518082815260200191505060405180910390a16001600081548092919060010191905055506001905092915050565b600080600083815260200190815260200160002060010160009054906101000a900473ffffffffffffffffffffffffffffffffffffffff1673ffffffffffffffffffffffffffffffffffffffff163373ffffffffffffffffffffffffffffffffffffffff1614610eb557600080fd5b60036004811115610ec257fe5b60008084815260200190815260200160002060050160009054906101000a900460ff166004811115610ef057fe5b14610efa57600080fd5b7f4cdc775e8f8c926da2bcdf782261435be8080b36964c56de7753739c41a8b53460008084815260200190815260200160002060050160009054906101000a900460ff1660405180826004811115610f4e57fe5b60ff16815260200191505060405180910390a160008083815260200190815260200160002060010160009054906101000a900473ffffffffffffffffffffffffffffffffffffffff1673ffffffffffffffffffffffffffffffffffffffff166108fc600080858152602001908152602001600020600301549081150290604051600060405180830381858888f19350505050158015610ff1573d6000803e3d6000fd5b5060008083815260200190815260200160002060010160009054906101000a900473ffffffffffffffffffffffffffffffffffffffff1673ffffffffffffffffffffffffffffffffffffffff166108fc600080858152602001908152602001600020600401549081150290604051600060405180830381858888f19350505050158015611082573d6000803e3d6000fd5b506001905091905056fea265627a7a7231582025adf1578c4d1a911855ae3e0c2b7b7ffba145e66c2d8a0c6f8b12b194b3b5ea64736f6c63430005110032",
  "source": "pragma solidity >=0.5.16 <0.9.0;\n//this contract is an escrow system \n//means that you and another person make a contract for work or another things\ncontract escrowSystem {\n\n//start the variable \n \n  mapping (uint256=>details) public contractsDetails;\n\n  enum status {\n   notStarted,\n   started,\n   inWait,\n   done,\n   failed\n   }\n\n  struct details {\n    address payable employer;\n    address payable worker;\n    address judge;\n    uint256 price;\n    uint256 deposit;\n    status state;\n  }\n  uint256 numberContract;\n  address public owner;\n\n  constructor()public{\n    //initialize the address of worker , employer , third person who make judge ,time of project ,first status\n   owner=msg.sender;\n  }\n  //this function will pay the money to contract \n  event logState(status logstate);\n  event amountLog(uint256 logAmounts);\n\n  function pay(\n    address judgeaddr,\n    uint256 deposits)public payable returns(bool){\n    contractsDetails[numberContract] = details({\n            employer:msg.sender,\n            worker:address(0),\n            judge:judgeaddr,\n            price: msg.value,\n            deposit:deposits,\n            state:status.notStarted\n        });\n    emit logState(contractsDetails[numberContract].state);\n    emit amountLog(contractsDetails[numberContract].price);\n\n    numberContract++;\n\n    return true;\n  }\n  //it is for start project \n  function Deposit(uint256 idContract)public payable returns(bool){\n    //1. should worker call this function \n    //2. should send money if worker loss the work pay for damage contract\n    //3. should money given by employer \n    // require(msg.sender==contractsDetails[idContract].worker);\n    require(msg.value>=contractsDetails[idContract].deposit);\n    require(contractsDetails[idContract].state==status.notStarted);\n        //status change\n    contractsDetails[idContract].worker=msg.sender;    \n    contractsDetails[idContract].state=status.started;\n    emit logState(contractsDetails[idContract].state);\n    return true;\n  }\n  //confirm the contract if it is ok or not \n  function confirm(uint256 idContract,bool verify)public returns(bool){\n    //1. should employer can call it \n    //2. should status be started \n    require(contractsDetails[idContract].employer==msg.sender);\n    require(contractsDetails[idContract].state==status.started);\n    //if work is ok \n    if(verify==true){\n      contractsDetails[idContract].state=status.done;\n      emit logState(contractsDetails[idContract].state);\n      return true;\n    }else{\n      contractsDetails[idContract].state=status.inWait;\n      emit logState(contractsDetails[idContract].state);\n        return false;\n    }//else\n  }\n  //if not confirm it will use\n  function judgment(bool verify,uint256 idContract)public returns(bool){\n    //1. should status be suspended \n    //2. just third person can call this fucntion\n    require(msg.sender==contractsDetails[idContract].judge);\n    // require(contractsDetails[idContract].state==status.inWait);\n    //if third person say work done\n    if(verify==true){\n      contractsDetails[idContract].state=status.done;\n      emit logState(contractsDetails[idContract].state);\n      return true;\n    }else{\n      contractsDetails[idContract].state=status.failed;\n      emit logState(contractsDetails[idContract].state);\n      return false;\n    }\n  }\n  //get the money with employer\n  function withdrawWorker(uint256 idContract)public returns(bool){\n    //1. should just worker call it \n    //2. should status be ended\n    require(msg.sender==contractsDetails[idContract].worker);\n    require(contractsDetails[idContract].state==status.done);\n    emit logState(contractsDetails[idContract].state);\n    //transfer the money to worker (money for work and his money for guaranty)\n    contractsDetails[idContract].worker.transfer(contractsDetails[idContract].price);\n    contractsDetails[idContract].worker.transfer(contractsDetails[idContract].deposit);\n    return true;\n  }\n  //get the money with employer\n  function withdrawEmployer(uint256 idContract)public payable returns(bool){\n    //1. just employer can call it \n    //2. status should be failed \n    require(msg.sender==contractsDetails[idContract].employer);\n    require(contractsDetails[idContract].state==status.failed);\n    //transfer the money to employer (money for worker and money for damage worker to contract)\n    contractsDetails[idContract].employer.transfer(contractsDetails[idContract].price);\n    contractsDetails[idContract].employer.transfer(contractsDetails[idContract].deposit);\n    return true;\n  }\n\n}\n",
  "sourcePath": "E:\\vscode\\new project\\blockchain\\final-project-dapp-2\\contracts\\escrowSys.sol",
  "compiler": {
    "name": "solc",
    "version": "0.5.17+commit.d19bba13.Emscripten.clang"
  },
  "schemaVersion": "3.4.3",
  "updatedAt": "2021-11-26T09:01:36.150Z",
  "devdoc": {
    "methods": {}
  },
  "userdoc": {
    "methods": {}
  }
}